{
  "_format": "hh-sol-artifact-1",
  "contractName": "Twitter",
  "sourceName": "contracts/twitter-q2.sol",
  "abi": [
    {
      "inputs": [
        {
          "internalType": "address",
          "name": "_user",
          "type": "address"
        }
      ],
      "name": "followUser",
      "outputs": [],
      "stateMutability": "nonpayable",
      "type": "function"
    },
    {
      "inputs": [
        {
          "internalType": "address",
          "name": "_user",
          "type": "address"
        }
      ],
      "name": "getConversationWithUser",
      "outputs": [
        {
          "components": [
            {
              "internalType": "uint256",
              "name": "messageId",
              "type": "uint256"
            },
            {
              "internalType": "string",
              "name": "content",
              "type": "string"
            },
            {
              "internalType": "address",
              "name": "from",
              "type": "address"
            },
            {
              "internalType": "address",
              "name": "to",
              "type": "address"
            }
          ],
          "internalType": "struct Twitter.Message[]",
          "name": "",
          "type": "tuple[]"
        }
      ],
      "stateMutability": "view",
      "type": "function"
    },
    {
      "inputs": [],
      "name": "getFollowers",
      "outputs": [
        {
          "internalType": "address[]",
          "name": "",
          "type": "address[]"
        }
      ],
      "stateMutability": "view",
      "type": "function"
    },
    {
      "inputs": [],
      "name": "getFollowing",
      "outputs": [
        {
          "internalType": "address[]",
          "name": "",
          "type": "address[]"
        }
      ],
      "stateMutability": "view",
      "type": "function"
    },
    {
      "inputs": [],
      "name": "getTweetFeed",
      "outputs": [
        {
          "components": [
            {
              "internalType": "uint256",
              "name": "tweetId",
              "type": "uint256"
            },
            {
              "internalType": "address",
              "name": "author",
              "type": "address"
            },
            {
              "internalType": "string",
              "name": "content",
              "type": "string"
            },
            {
              "internalType": "uint256",
              "name": "createdAt",
              "type": "uint256"
            }
          ],
          "internalType": "struct Twitter.Tweet[]",
          "name": "",
          "type": "tuple[]"
        }
      ],
      "stateMutability": "view",
      "type": "function"
    },
    {
      "inputs": [],
      "name": "nextMessageId",
      "outputs": [
        {
          "internalType": "uint256",
          "name": "",
          "type": "uint256"
        }
      ],
      "stateMutability": "view",
      "type": "function"
    },
    {
      "inputs": [],
      "name": "nextTweetId",
      "outputs": [
        {
          "internalType": "uint256",
          "name": "",
          "type": "uint256"
        }
      ],
      "stateMutability": "view",
      "type": "function"
    },
    {
      "inputs": [
        {
          "internalType": "string",
          "name": "_content",
          "type": "string"
        }
      ],
      "name": "postTweet",
      "outputs": [],
      "stateMutability": "nonpayable",
      "type": "function"
    },
    {
      "inputs": [
        {
          "internalType": "address",
          "name": "_user",
          "type": "address"
        }
      ],
      "name": "readTweets",
      "outputs": [
        {
          "components": [
            {
              "internalType": "uint256",
              "name": "tweetId",
              "type": "uint256"
            },
            {
              "internalType": "address",
              "name": "author",
              "type": "address"
            },
            {
              "internalType": "string",
              "name": "content",
              "type": "string"
            },
            {
              "internalType": "uint256",
              "name": "createdAt",
              "type": "uint256"
            }
          ],
          "internalType": "struct Twitter.Tweet[]",
          "name": "",
          "type": "tuple[]"
        }
      ],
      "stateMutability": "view",
      "type": "function"
    },
    {
      "inputs": [
        {
          "internalType": "string",
          "name": "_name",
          "type": "string"
        }
      ],
      "name": "registerAccount",
      "outputs": [],
      "stateMutability": "nonpayable",
      "type": "function"
    },
    {
      "inputs": [
        {
          "internalType": "address",
          "name": "_recipient",
          "type": "address"
        },
        {
          "internalType": "string",
          "name": "_content",
          "type": "string"
        }
      ],
      "name": "sendMessage",
      "outputs": [],
      "stateMutability": "nonpayable",
      "type": "function"
    },
    {
      "inputs": [
        {
          "internalType": "uint256",
          "name": "",
          "type": "uint256"
        }
      ],
      "name": "tweets",
      "outputs": [
        {
          "internalType": "uint256",
          "name": "tweetId",
          "type": "uint256"
        },
        {
          "internalType": "address",
          "name": "author",
          "type": "address"
        },
        {
          "internalType": "string",
          "name": "content",
          "type": "string"
        },
        {
          "internalType": "uint256",
          "name": "createdAt",
          "type": "uint256"
        }
      ],
      "stateMutability": "view",
      "type": "function"
    },
    {
      "inputs": [
        {
          "internalType": "address",
          "name": "",
          "type": "address"
        }
      ],
      "name": "users",
      "outputs": [
        {
          "internalType": "address",
          "name": "wallet",
          "type": "address"
        },
        {
          "internalType": "string",
          "name": "name",
          "type": "string"
        }
      ],
      "stateMutability": "view",
      "type": "function"
    }
  ],
  "bytecode": "0x608060405234801561001057600080fd5b50612647806100206000396000f3fe608060405234801561001057600080fd5b50600436106100cf5760003560e01c80638076e02b1161008c578063bff6de2011610066578063bff6de2014610215578063de6f24bb14610231578063e8d857b01461024d578063eefbf17e14610280576100cf565b80638076e02b146101aa578063a70806f7146101c8578063a87430ba146101e4576100cf565b80630cbc3dc4146100d45780630d79f561146100f057806323f147021461010e578063495b8c291461012c57806371c85b8d1461014a57806375d92f531461017a575b600080fd5b6100ee60048036038101906100e99190611d2c565b61029e565b005b6100f8610559565b6040516101059190611e69565b60405180910390f35b610116610742565b6040516101239190611e69565b60405180910390f35b61013461092b565b6040516101419190612062565b60405180910390f35b610164600480360381019061015f91906120b0565b610ae7565b6040516101719190612062565b60405180910390f35b610194600480360381019061018f91906120b0565b610d0c565b6040516101a19190612202565b60405180910390f35b6101b2610f37565b6040516101bf9190612233565b60405180910390f35b6101e260048036038101906101dd91906120b0565b610f3d565b005b6101fe60048036038101906101f991906120b0565b6112c8565b60405161020c9291906122a7565b60405180910390f35b61022f600480360381019061022a9190611d2c565b611394565b005b61024b600480360381019061024691906122d7565b6114c1565b005b61026760048036038101906102629190612363565b611a78565b6040516102779493929190612390565b60405180910390f35b610288611b50565b6040516102959190612233565b60405180910390f35b3360008060008373ffffffffffffffffffffffffffffffffffffffff1673ffffffffffffffffffffffffffffffffffffffff168152602001908152602001600020905060008160010180546102f29061240b565b80601f016020809104026020016040519081016040528092919081815260200182805461031e9061240b565b801561036b5780601f106103405761010080835404028352916020019161036b565b820191906000526020600020905b81548152906001019060200180831161034e57829003601f168201915b505050505090506000815114156103b7576040517f08c379a00000000000000000000000000000000000000000000000000000000081526004016103ae906124af565b60405180910390fd5b6000604051806080016040528060025481526020013373ffffffffffffffffffffffffffffffffffffffff16815260200187878080601f016020809104026020016040519081016040528093929190818152602001838380828437600081840152601f19601f820116905080830192505050505050508152602001428152509050806001600060025481526020019081526020016000206000820151816000015560208201518160010160006101000a81548173ffffffffffffffffffffffffffffffffffffffff021916908373ffffffffffffffffffffffffffffffffffffffff16021790555060408201518160020190805190602001906104bb929190611b56565b506060820151816003015590505060008060003373ffffffffffffffffffffffffffffffffffffffff1673ffffffffffffffffffffffffffffffffffffffff16815260200190815260200160002090508060020160025490806001815401808255809150506001900390600052602060002001600090919091909150556002600081548092919061054b906124fe565b919050555050505050505050565b60603360008060008373ffffffffffffffffffffffffffffffffffffffff1673ffffffffffffffffffffffffffffffffffffffff168152602001908152602001600020905060008160010180546105af9061240b565b80601f01602080910402602001604051908101604052809291908181526020018280546105db9061240b565b80156106285780601f106105fd57610100808354040283529160200191610628565b820191906000526020600020905b81548152906001019060200180831161060b57829003601f168201915b50505050509050600081511415610674576040517f08c379a000000000000000000000000000000000000000000000000000000000815260040161066b906124af565b60405180910390fd5b6000803373ffffffffffffffffffffffffffffffffffffffff1673ffffffffffffffffffffffffffffffffffffffff16815260200190815260200160002060040180548060200260200160405190810160405280929190818152602001828054801561073557602002820191906000526020600020905b8160009054906101000a900473ffffffffffffffffffffffffffffffffffffffff1673ffffffffffffffffffffffffffffffffffffffff16815260200190600101908083116106eb575b5050505050935050505090565b60603360008060008373ffffffffffffffffffffffffffffffffffffffff1673ffffffffffffffffffffffffffffffffffffffff168152602001908152602001600020905060008160010180546107989061240b565b80601f01602080910402602001604051908101604052809291908181526020018280546107c49061240b565b80156108115780601f106107e657610100808354040283529160200191610811565b820191906000526020600020905b8154815290600101906020018083116107f457829003601f168201915b5050505050905060008151141561085d576040517f08c379a0000000000000000000000000000000000000000000000000000000008152600401610854906124af565b60405180910390fd5b6000803373ffffffffffffffffffffffffffffffffffffffff1673ffffffffffffffffffffffffffffffffffffffff16815260200190815260200160002060030180548060200260200160405190810160405280929190818152602001828054801561091e57602002820191906000526020600020905b8160009054906101000a900473ffffffffffffffffffffffffffffffffffffffff1673ffffffffffffffffffffffffffffffffffffffff16815260200190600101908083116108d4575b5050505050935050505090565b6060600060025467ffffffffffffffff81111561094b5761094a612547565b5b60405190808252806020026020018201604052801561098457816020015b610971611bdc565b8152602001906001900390816109695790505b50905060005b600254811015610adf5760016000828152602001908152602001600020604051806080016040529081600082015481526020016001820160009054906101000a900473ffffffffffffffffffffffffffffffffffffffff1673ffffffffffffffffffffffffffffffffffffffff1673ffffffffffffffffffffffffffffffffffffffff168152602001600282018054610a229061240b565b80601f0160208091040260200160405190810160405280929190818152602001828054610a4e9061240b565b8015610a9b5780601f10610a7057610100808354040283529160200191610a9b565b820191906000526020600020905b815481529060010190602001808311610a7e57829003601f168201915b50505050508152602001600382015481525050828281518110610ac157610ac0612576565b5b60200260200101819052508080610ad7906124fe565b91505061098a565b508091505090565b606060008060008473ffffffffffffffffffffffffffffffffffffffff1673ffffffffffffffffffffffffffffffffffffffff16815260200190815260200160002060020190506000818054905067ffffffffffffffff811115610b4e57610b4d612547565b5b604051908082528060200260200182016040528015610b8757816020015b610b74611bdc565b815260200190600190039081610b6c5790505b50905060005b8280549050811015610d015760016000848381548110610bb057610baf612576565b5b90600052602060002001548152602001908152602001600020604051806080016040529081600082015481526020016001820160009054906101000a900473ffffffffffffffffffffffffffffffffffffffff1673ffffffffffffffffffffffffffffffffffffffff1673ffffffffffffffffffffffffffffffffffffffff168152602001600282018054610c449061240b565b80601f0160208091040260200160405190810160405280929190818152602001828054610c709061240b565b8015610cbd5780601f10610c9257610100808354040283529160200191610cbd565b820191906000526020600020905b815481529060010190602001808311610ca057829003601f168201915b50505050508152602001600382015481525050828281518110610ce357610ce2612576565b5b60200260200101819052508080610cf9906124fe565b915050610b8d565b508092505050919050565b606060008060003373ffffffffffffffffffffffffffffffffffffffff1673ffffffffffffffffffffffffffffffffffffffff16815260200190815260200160002090508060050160008473ffffffffffffffffffffffffffffffffffffffff1673ffffffffffffffffffffffffffffffffffffffff168152602001908152602001600020805480602002602001604051908101604052809291908181526020016000905b82821015610f2b578382906000526020600020906004020160405180608001604052908160008201548152602001600182018054610dee9061240b565b80601f0160208091040260200160405190810160405280929190818152602001828054610e1a9061240b565b8015610e675780601f10610e3c57610100808354040283529160200191610e67565b820191906000526020600020905b815481529060010190602001808311610e4a57829003601f168201915b505050505081526020016002820160009054906101000a900473ffffffffffffffffffffffffffffffffffffffff1673ffffffffffffffffffffffffffffffffffffffff1673ffffffffffffffffffffffffffffffffffffffff1681526020016003820160009054906101000a900473ffffffffffffffffffffffffffffffffffffffff1673ffffffffffffffffffffffffffffffffffffffff1673ffffffffffffffffffffffffffffffffffffffff168152505081526020019060010190610db1565b50505050915050919050565b60025481565b8060008060008373ffffffffffffffffffffffffffffffffffffffff1673ffffffffffffffffffffffffffffffffffffffff16815260200190815260200160002090506000816001018054610f919061240b565b80601f0160208091040260200160405190810160405280929190818152602001828054610fbd9061240b565b801561100a5780601f10610fdf5761010080835404028352916020019161100a565b820191906000526020600020905b815481529060010190602001808311610fed57829003601f168201915b50505050509050600081511415611056576040517f08c379a000000000000000000000000000000000000000000000000000000000815260040161104d906124af565b60405180910390fd5b3360008060008373ffffffffffffffffffffffffffffffffffffffff1673ffffffffffffffffffffffffffffffffffffffff168152602001908152602001600020905060008160010180546110aa9061240b565b80601f01602080910402602001604051908101604052809291908181526020018280546110d69061240b565b80156111235780601f106110f857610100808354040283529160200191611123565b820191906000526020600020905b81548152906001019060200180831161110657829003601f168201915b5050505050905060008151141561116f576040517f08c379a0000000000000000000000000000000000000000000000000000000008152600401611166906124af565b60405180910390fd5b60008060003373ffffffffffffffffffffffffffffffffffffffff1673ffffffffffffffffffffffffffffffffffffffff168152602001908152602001600020905080600301889080600181540180825580915050600190039060005260206000200160009091909190916101000a81548173ffffffffffffffffffffffffffffffffffffffff021916908373ffffffffffffffffffffffffffffffffffffffff16021790555060008060008a73ffffffffffffffffffffffffffffffffffffffff1673ffffffffffffffffffffffffffffffffffffffff168152602001908152602001600020905080600401339080600181540180825580915050600190039060005260206000200160009091909190916101000a81548173ffffffffffffffffffffffffffffffffffffffff021916908373ffffffffffffffffffffffffffffffffffffffff160217905550505050505050505050565b60006020528060005260406000206000915090508060000160009054906101000a900473ffffffffffffffffffffffffffffffffffffffff16908060010180546113119061240b565b80601f016020809104026020016040519081016040528092919081815260200182805461133d9061240b565b801561138a5780601f1061135f5761010080835404028352916020019161138a565b820191906000526020600020905b81548152906001019060200180831161136d57829003601f168201915b5050505050905082565b600082828080601f016020809104026020016040519081016040528093929190818152602001838380828437600081840152601f19601f820116905080830192505050505050509050600081511415611422576040517f08c379a0000000000000000000000000000000000000000000000000000000008152600401611419906125f1565b60405180910390fd5b60008060003373ffffffffffffffffffffffffffffffffffffffff1673ffffffffffffffffffffffffffffffffffffffff1681526020019081526020016000209050338160000160006101000a81548173ffffffffffffffffffffffffffffffffffffffff021916908373ffffffffffffffffffffffffffffffffffffffff16021790555083838260010191906114ba929190611c1a565b5050505050565b3360008060008373ffffffffffffffffffffffffffffffffffffffff1673ffffffffffffffffffffffffffffffffffffffff168152602001908152602001600020905060008160010180546115159061240b565b80601f01602080910402602001604051908101604052809291908181526020018280546115419061240b565b801561158e5780601f106115635761010080835404028352916020019161158e565b820191906000526020600020905b81548152906001019060200180831161157157829003601f168201915b505050505090506000815114156115da576040517f08c379a00000000000000000000000000000000000000000000000000000000081526004016115d1906124af565b60405180910390fd5b8560008060008373ffffffffffffffffffffffffffffffffffffffff1673ffffffffffffffffffffffffffffffffffffffff1681526020019081526020016000209050600081600101805461162e9061240b565b80601f016020809104026020016040519081016040528092919081815260200182805461165a9061240b565b80156116a75780601f1061167c576101008083540402835291602001916116a7565b820191906000526020600020905b81548152906001019060200180831161168a57829003601f168201915b505050505090506000815114156116f3576040517f08c379a00000000000000000000000000000000000000000000000000000000081526004016116ea906124af565b60405180910390fd5b6000604051806080016040528060035481526020018a8a8080601f016020809104026020016040519081016040528093929190818152602001838380828437600081840152601f19601f8201169050808301925050505050505081526020013373ffffffffffffffffffffffffffffffffffffffff1681526020018b73ffffffffffffffffffffffffffffffffffffffff16815250905060008060003373ffffffffffffffffffffffffffffffffffffffff1673ffffffffffffffffffffffffffffffffffffffff16815260200190815260200160002090508060050160008c73ffffffffffffffffffffffffffffffffffffffff1673ffffffffffffffffffffffffffffffffffffffff16815260200190815260200160002082908060018154018082558091505060019003906000526020600020906004020160009091909190915060008201518160000155602082015181600101908051906020019061185d929190611b56565b5060408201518160020160006101000a81548173ffffffffffffffffffffffffffffffffffffffff021916908373ffffffffffffffffffffffffffffffffffffffff16021790555060608201518160030160006101000a81548173ffffffffffffffffffffffffffffffffffffffff021916908373ffffffffffffffffffffffffffffffffffffffff160217905550505060008060008d73ffffffffffffffffffffffffffffffffffffffff1673ffffffffffffffffffffffffffffffffffffffff16815260200190815260200160002090508060050160003373ffffffffffffffffffffffffffffffffffffffff1673ffffffffffffffffffffffffffffffffffffffff1681526020019081526020016000208390806001815401808255809150506001900390600052602060002090600402016000909190919091506000820151816000015560208201518160010190805190602001906119c1929190611b56565b5060408201518160020160006101000a81548173ffffffffffffffffffffffffffffffffffffffff021916908373ffffffffffffffffffffffffffffffffffffffff16021790555060608201518160030160006101000a81548173ffffffffffffffffffffffffffffffffffffffff021916908373ffffffffffffffffffffffffffffffffffffffff160217905550505060036000815480929190611a65906124fe565b9190505550505050505050505050505050565b60016020528060005260406000206000915090508060000154908060010160009054906101000a900473ffffffffffffffffffffffffffffffffffffffff1690806002018054611ac79061240b565b80601f0160208091040260200160405190810160405280929190818152602001828054611af39061240b565b8015611b405780601f10611b1557610100808354040283529160200191611b40565b820191906000526020600020905b815481529060010190602001808311611b2357829003601f168201915b5050505050908060030154905084565b60035481565b828054611b629061240b565b90600052602060002090601f016020900481019282611b845760008555611bcb565b82601f10611b9d57805160ff1916838001178555611bcb565b82800160010185558215611bcb579182015b82811115611bca578251825591602001919060010190611baf565b5b509050611bd89190611ca0565b5090565b604051806080016040528060008152602001600073ffffffffffffffffffffffffffffffffffffffff16815260200160608152602001600081525090565b828054611c269061240b565b90600052602060002090601f016020900481019282611c485760008555611c8f565b82601f10611c6157803560ff1916838001178555611c8f565b82800160010185558215611c8f579182015b82811115611c8e578235825591602001919060010190611c73565b5b509050611c9c9190611ca0565b5090565b5b80821115611cb9576000816000905550600101611ca1565b5090565b600080fd5b600080fd5b600080fd5b600080fd5b600080fd5b60008083601f840112611cec57611ceb611cc7565b5b8235905067ffffffffffffffff811115611d0957611d08611ccc565b5b602083019150836001820283011115611d2557611d24611cd1565b5b9250929050565b60008060208385031215611d4357611d42611cbd565b5b600083013567ffffffffffffffff811115611d6157611d60611cc2565b5b611d6d85828601611cd6565b92509250509250929050565b600081519050919050565b600082825260208201905092915050565b6000819050602082019050919050565b600073ffffffffffffffffffffffffffffffffffffffff82169050919050565b6000611dd082611da5565b9050919050565b611de081611dc5565b82525050565b6000611df28383611dd7565b60208301905092915050565b6000602082019050919050565b6000611e1682611d79565b611e208185611d84565b9350611e2b83611d95565b8060005b83811015611e5c578151611e438882611de6565b9750611e4e83611dfe565b925050600181019050611e2f565b5085935050505092915050565b60006020820190508181036000830152611e838184611e0b565b905092915050565b600081519050919050565b600082825260208201905092915050565b6000819050602082019050919050565b6000819050919050565b611eca81611eb7565b82525050565b600081519050919050565b600082825260208201905092915050565b60005b83811015611f0a578082015181840152602081019050611eef565b83811115611f19576000848401525b50505050565b6000601f19601f8301169050919050565b6000611f3b82611ed0565b611f458185611edb565b9350611f55818560208601611eec565b611f5e81611f1f565b840191505092915050565b6000608083016000830151611f816000860182611ec1565b506020830151611f946020860182611dd7565b5060408301518482036040860152611fac8282611f30565b9150506060830151611fc16060860182611ec1565b508091505092915050565b6000611fd88383611f69565b905092915050565b6000602082019050919050565b6000611ff882611e8b565b6120028185611e96565b93508360208202850161201485611ea7565b8060005b8581101561205057848403895281516120318582611fcc565b945061203c83611fe0565b925060208a01995050600181019050612018565b50829750879550505050505092915050565b6000602082019050818103600083015261207c8184611fed565b905092915050565b61208d81611dc5565b811461209857600080fd5b50565b6000813590506120aa81612084565b92915050565b6000602082840312156120c6576120c5611cbd565b5b60006120d48482850161209b565b91505092915050565b600081519050919050565b600082825260208201905092915050565b6000819050602082019050919050565b60006080830160008301516121216000860182611ec1565b50602083015184820360208601526121398282611f30565b915050604083015161214e6040860182611dd7565b5060608301516121616060860182611dd7565b508091505092915050565b60006121788383612109565b905092915050565b6000602082019050919050565b6000612198826120dd565b6121a281856120e8565b9350836020820285016121b4856120f9565b8060005b858110156121f057848403895281516121d1858261216c565b94506121dc83612180565b925060208a019950506001810190506121b8565b50829750879550505050505092915050565b6000602082019050818103600083015261221c818461218d565b905092915050565b61222d81611eb7565b82525050565b60006020820190506122486000830184612224565b92915050565b61225781611dc5565b82525050565b600082825260208201905092915050565b600061227982611ed0565b612283818561225d565b9350612293818560208601611eec565b61229c81611f1f565b840191505092915050565b60006040820190506122bc600083018561224e565b81810360208301526122ce818461226e565b90509392505050565b6000806000604084860312156122f0576122ef611cbd565b5b60006122fe8682870161209b565b935050602084013567ffffffffffffffff81111561231f5761231e611cc2565b5b61232b86828701611cd6565b92509250509250925092565b61234081611eb7565b811461234b57600080fd5b50565b60008135905061235d81612337565b92915050565b60006020828403121561237957612378611cbd565b5b60006123878482850161234e565b91505092915050565b60006080820190506123a56000830187612224565b6123b2602083018661224e565b81810360408301526123c4818561226e565b90506123d36060830184612224565b95945050505050565b7f4e487b7100000000000000000000000000000000000000000000000000000000600052602260045260246000fd5b6000600282049050600182168061242357607f821691505b60208210811415612437576124366123dc565b5b50919050565b7f546869732077616c6c657420646f6573206e6f742062656c6f6e6720746f206160008201527f6e79206163636f756e742e000000000000000000000000000000000000000000602082015250565b6000612499602b8361225d565b91506124a48261243d565b604082019050919050565b600060208201905081810360008301526124c88161248c565b9050919050565b7f4e487b7100000000000000000000000000000000000000000000000000000000600052601160045260246000fd5b600061250982611eb7565b91507fffffffffffffffffffffffffffffffffffffffffffffffffffffffffffffffff82141561253c5761253b6124cf565b5b600182019050919050565b7f4e487b7100000000000000000000000000000000000000000000000000000000600052604160045260246000fd5b7f4e487b7100000000000000000000000000000000000000000000000000000000600052603260045260246000fd5b7f4e616d652063616e6e6f7420626520616e20656d70747920737472696e670000600082015250565b60006125db601e8361225d565b91506125e6826125a5565b602082019050919050565b6000602082019050818103600083015261260a816125ce565b905091905056fea2646970667358221220d561b81483d443b90b3bbb1192ced9f69d1fee5ddfd1be48ce0586aaa6df083764736f6c63430008090033",
  "linkReferences": {},
  "deployedLinkReferences": {}
}